:020000041000EA
:1000000000B5324B212058609868022188439860DF
:10001000D860186158612E4B002199600221596106
:100020000121F02299502B49196001219960352056
:1000300000F044F80222904214D00621196600F024
:1000400034F8196E01211966002018661A6600F04E
:100050002CF8196E196E196E052000F02FF8012189
:100060000842F9D1002199601B49196000215960AB
:100070001A491B48016001219960EB211966A021F2
:10008000196600F012F800219960164914480160C1
:100090000121996001BC002800D000471248134993
:1000A000086003C880F30888084703B5996A0420EC
:1000B0000142FBD001200142F8D103BD02B5186610
:1000C0001866FFF7F2FF186E186E02BD00000240BE
:1000D000000000180000070000035F00212200005C
:1000E000F4000018222000A00001001008ED00E03C
:1000F00000000000000000000000000074B24E7A12
:1001000000200420F7010010C3010010C5010010F9
:10011000C1010010C1010010C1010010C101001097
:10012000C1010010C1010010C1010010C701001081
:10013000C1010010C1010010C9010010CB01001065
:10014000CD010010CD010010CD010010CD01001037
:10015000CD010010CD010010CD010010CD01001027
:10016000CD010010CD010010CD010010CD01001017
:10017000CD010010CD010010CD010010CD01001007
:10018000CD010010CD010010CD010010CD010010F7
:10019000CD010010CD010010CD010010CD010010E7
:1001A000CD010010CD010010CD010010CD010010D7
:1001B000CD010010CD010010CD010010CD010010C7
:1001C00000BE00BE00BE00BE00BE00BEEFF3058054
:1001D000103800BEF2EB8871546C0010806C001077
:1001E0003802001090A31AE71E481F49086006C88D
:1001F00081F3088810471D480068002801D019487D
:10020000F3E70DA40ECC002902D000F012F8F9E7B4
:100210001749184A002000E001C19142FCD116495B
:100220008847164988471649884700BEFDE701C937
:1002300001C29A42FBD37047806C0010D0000020AE
:1002400020070020D07200100000042000000420CD
:10025000D0720010001004200010042000000000E4
:10026000704700000000000008ED00E0000000D032
:1002700020070020946502203D550010A90A0010B7
:1002800035550010F8B5C04606480749091A8B10C5
:10029000C90FC91810B5491003D0044B002B00D06A
:1002A000984710BD20070020200700200000000014
:1002B000054B10B5002B03D00449054800E000BFF2
:1002C000FFF7E2FF10BDC04600000000DC0B00207D
:1002D00024630010F0B5DE4657464E464546E0B56D
:1002E000454B85B01B68002B00D083E0434B1B6857
:1002F000002B1AD1424B434E9A460027424C33689A
:100300000FE00022554653009B189B0053442800E1
:100310009B68984722683368013222600C359A4204
:10032000F1DB2760002BECDCFEE7012B06D005B0EB
:10033000F0BCBB46B246A946A046F0BD304B324C9D
:100340009A46324B2F4E9846314B324F0293324BE6
:10035000324D0393002399463B6801333B604B4683
:1003600023603368002B00DCFEE72B00BB465546BC
:1003700037001E004B46336001F0D2FF434622682F
:100380001860596053009B189B0053449B682800D9
:10039000984732682368012A09D03A6801332360FC
:1003A0000C359342E6DB35003E005F46D4E7029908
:1003B0009B00CA5835000132CA5001F0B1FF039AC0
:1003C00023689446DB009C446346009001911868C2
:1003D000596843461A685B68801A994102000B000D
:1003E0000098019912184B4161463E000A604B602B
:1003F0005F46B1E79F46C046180C0020200C002045
:100400002C0C0020240C0020C40B0020400B0020EA
:10041000240D00201C0D0020A0080020100C00203E
:10042000F0B5DE4657464E464546E0B5454B85B0ED
:100430001B68002B00D083E0434B1B68002B1AD1B4
:10044000424B434E9A460027424C33680FE000224D
:10045000554653009B189B00534428009B689847BF
:1004600022683368013222600C359A42F1DB276042
:10047000002BECDCFEE7012B06D005B0F0BCBB4640
:10048000B246A946A046F0BD304B324C9A46324B9C
:100490002F4E9846314B324F0293324B324D0393DD
:1004A000002399463B6801333B604B462360336829
:1004B000002B00DCFEE72B00BB46554637001E0034
:1004C0004B46336001F02CFF4346226818605960A8
:1004D00053009B189B0053449B6828009847326840
:1004E0002368012A09D03A68013323600C3593420E
:1004F000E6DB35003E005F46D4E702999B00CA5810
:1005000035000132CA5001F00BFF039A236894466C
:10051000DB009C446346009001911868596843468B
:100520001A685B68801A994102000B0000980199D3
:1005300012184B4161463E000A604B605F46B1E7CE
:100540009F46C0461C0C0020200C0020A40C00205C
:10055000280C0020C80B0020480B00204C0D002068
:10056000200D0020F0080020140C0020F0B5DE461D
:1005700057464E464546E0B5CF4CD04B8DB019009E
:100580002000984601F034F82368CD4D99464A463C
:100590002B68CC4ED11A0911C918CB4BA068196031
:1005A0006368CA4C9A46524633682768D21A1211B9
:1005B000D218C74B32601A60C31B1B11DB19C54F21
:1005C00023603B60296002F00DFD4B4604000D00E6
:1005D000584202F007FD22002B0002F04BFD53466B
:1005E000060058420F0002F0FDFC02000B00200044
:1005F000290002F03FFD040050460D0002F0F2FC1D
:1006000000900191484602F0EDFC009A019B02F037
:1006100031FD43461B680022079343465B68009008
:100620000191089343469B6830000993AA4B390017
:100630000593AA4B02F067FC02F0ECFC0023A84AE9
:10064000C11703F073FA059E0904000C0843002249
:10065000A24B30602900200002F055FC02F0DAFCC9
:1006600000239F4AC11703F061FA0904000C0843F4
:1006700000229A4B70600098019902F044FC02F04D
:10068000C9FC0023964AC11703F050FA1423984678
:10069000944B00249B46002347469A46A0460904F3
:1006A000000C0843B0600AAD0BAE5B462B8053468E
:1006B000AB708023D0249B0199462406A3613200AD
:1006C00003232900884805F0FBFD4B46C0226361E7
:1006D0007378B4781B02920013401C434444A3B2C5
:1006E000013F9846002FE0D11C00804B2000984627
:1006F000142102F091F94346DB8880B283428041A5
:100700001123424603406233137200239B46013398
:10071000102499460392069280235B422343DBB266
:10072000984600239A4643461427049400934B4668
:100730002B70009BD0246B705B46AB7080239B01B9
:10074000984624063200A36129000323664805F079
:10075000B7FD43466361C02372789B0012021A40C2
:10076000B378013F134353449BB29A46002FDED126
:100770001800142102F050F9039980B24A8A7323B9
:10078000049C824205D30B8A052298429B419343E5
:100790006833039A10341375E4B20C320392502C70
:1007A000BAD1069B202098461C7A42461D7D202304
:1007B0008046D020D65C0C33D75C0C33D35C00066B
:1007C0009C46059B81461A68009703925A689B686D
:1007D00004920593464B002219009A46213158781D
:1007E000A0425FD19878A8425CD1D878B04259D164
:1007F0001879009FB84255D15879604552D140468A
:10080000185C002833D19879002820D09868039F7D
:100810000004381A0014C717C01978405F69B8423D
:1008200040DCD868049F0004381A0014C717C019A8
:1008300078409F69B84235DC1869059F0004381A72
:100840000014C717C0197840DF69B8422ADCD3000A
:100850009B1852469B00D35C264E3370492B4BD0DD
:100860000DB0F0BCBB46B246A946A046F0BD484616
:1008700080274068FF04384202D10878632811D0ED
:100880004846802740683F05384202D148786328AF
:1008900008D04846802740687F053842B3D1887821
:1008A0006328B0D10132243324311B2A97D13F224F
:1008B000104B1A70D4E7C046640B0020B80B002020
:1008C000040C0020080C0020AC0B00200C0C0020B5
:1008D000B00B0020B40B0020D00B00200000F04033
:1008E000B84B39000180FFFF0000044024060020BF
:1008F000580200208C65022008990A00CC172300BA
:100900008D0EA10129439001801859410B040999CA
:10091000000C0A00C91718430B00970E8D013D43C8
:100920009401A4185D412B04240C07991C43044036
:100930000A002500CC1723008F0EA1013943900136
:10094000801859410B04000C1843284000D487E755
:100950004A23337084E7C046F0B5C64600B5026846
:10096000040001238AB0002A38D0424D2560002BB4
:1009700004D101200AB080BCB846F0BD01F0D0FC23
:100980003D4E73688B42F4D802D133688342F0D86D
:10099000D0231B061B68012B61D00122374B1A6044
:1009A000FFF7E4FD364F3748397804F0D9FFD023FC
:1009B0001B065A688023344913400A68002A1CD158
:1009C000002B01D101330B6001F0AAFC00232F4A58
:1009D00080185941002330607160C7E72C4804F04B
:1009E0003BFFD02332201B065B6800F045FD03204F
:1009F00000F038FD204E1F4DD2E7012A08D0022A10
:100A000030D0032AE0D1002B31D102330B60DBE779
:100A1000002BD9D102330B601E4B28211A70684677
:100A20001D4A3B7804F046FD1C4B1D4F98460021A3
:100A3000595E0023F85E00F00BFD684600F026FDCD
:100A400082223B6892001E333B609342BCDD4346EA
:100A500042461B681E3313600A233B60B4E7114A09
:100A600013609DE7002BAFD003230B60ACE700239E
:100A70000B60A9E76C090010500B0020100C00203F
:100A80008C65022038630010580B00203075000080
:100A9000286300108D6502204C6300106006002062
:100AA00064060020140C0020F0B5C64600B504F022
:100AB00083FE4C4804F0D0FE0C23D0269846012734
:100AC000494D3606A84410CD200000F069FE3B00D9
:100AD000A340012200212000B36200F04DFE4545F5
:100AE000F1D100F0A7F8414804F0B6FE372000F03D
:100AF000C3FC032000F0B6FC3D493E4805F05CFB1A
:100B00000321082000F01EFE0321092000F01AFE38
:100B100000F024FD3849394800F06AFD384804F0F7
:100B20009BFE072000F03CFE8023364C0022B3627F
:100B30000121072000F020FE3349200005F052F883
:100B40000222324963680A6021681340053251402D
:100B5000C8320A402E490E200A602E4A0121136035
:100B600000F0F0FD01210C2000F0ECFD01210F2030
:100B700000F0E8FD0D2000F013FE80239B0173625E
:100B800073613368012B18D0234A1368092B08DDE1
:100B90000022224B1A60FFF79DFB002080BCB84664
:100BA000F0BD0C2058431E491E4D0C186360A56013
:100BB0000024013344501360EAE71B4A1368092BF1
:100BC0000ADC0C2058431949164D0C186360A560C7
:100BD00000240133445013600022154B1A60FFF7C4
:100BE0001FFCDAE750630010846400106463001097
:100BF000801A060008070020B80B0020640B0020B4
:100C0000746300100000044020A107000430044079
:100C10000010044004200440240C0020180C002084
:100C20002C0C002059090010280C0020A40C0020D6
:100C30001C0C0020F0B5D6464F464646C0B57A4952
:100C40008AB07A4805F06CF879490600774805F0D3
:100C500067F878490500754805F062F8002380229E
:100C600099460593F82352025B0202920393C02334
:100C700004001B03102202A906A89846049302F060
:100C8000BFFF3100731C08310A03DB01134306A9BF
:100C9000102202A8079302F0B3FF674B01270593C8
:100CA000A0230621DB0210209A46029300F04AFDA1
:100CB0000123102200215D48009705F0ADF83200B5
:100CC000002102AB594805F001F929006B1C0D31D8
:100CD0000A03DB011343594A062113408022D2053F
:100CE0001343079343460893554B112009935346EA
:100CF000069300F027FD0123112201214B480097A4
:100D000005F08AF82A00012106AB484805F0DEF814
:100D10004B4680220593F82352025B020292039312
:100D20004346102202A906A8049302F069FF22009C
:100D3000A31C08321203DB01134306A9102202A8E8
:100D4000079302F05DFF3F4B06211220059300F050
:100D5000F9FC0621132000F0F5FC0621142000F018
:100D6000F1FC0621152000F0EDFC042312220221E3
:100D70002E48009705F050F82200022102AB2B48C4
:100D800005F0A4F8012004F01BFFA02604000120B8
:100D900004F016FFF605B4462B4BE502C2022B49C0
:100DA0002B40134319432A4EA30163441E60294E6E
:100DB00080015E609626B6029E60196126496044F5
:100DC0000A4026492A430A4325490160802143609D
:100DD00087600261154A490253680B42FCD18021A9
:100DE000204B89021361114A53680B42FCD1E02366
:100DF0008021FF3353610D4AC90253680B42FCD175
:100E00004023FF339361184B184AA0211A60012335
:100E10008622A340C905D2008B500AB0E0BCBA4676
:100E2000B146A846F0BDC046CC6900100000205075
:100E3000A86900108C69001000020004FFFFFF9FEA
:100E40002046004452024010FD0700FF110001003F
:100E5000840D002018002050FD871FFF09801F000F
:100E6000680600208F0200000020205007070000C5
:100E7000F0B557464546DE464E46E0B595B09A4633
:100E80001EAB1B78150004931FAB1C78A0239B009E
:100E9000984200DB39E1F0225200914200DB34E15C
:100EA00023009C466400644464002418002C00DC89
:100EB0002BE1DC0064180693002C00DC25E187B2EE
:100EC000AB00CB485B191B188EB210933300002582
:100ED00008339BB2059353462800B94665460092F5
:100EE0000D970E930F96109B0D9A195C4B461BB2F3
:100EF0009C4616184A46AC441392624637B2FF43EA
:100F0000079301920F9B0E9AA94694461D00FF1766
:100F10003740119308971290C80700D424E14A463D
:100F2000012A00D1C5E12AB292464A46002A58D089
:100F3000A02292004E4693460B936A464B46079F6B
:100F4000AC485644158109910A950C933DB2ED4386
:100F5000ED173D402DB25D4500DBA74D6B46009A75
:100F60001B89924501DBE023FF331BB2D9430122E9
:100F7000C9170B409C00E418E40164196310C15CBC
:100F8000224200D0C8E00E3290462A005446654600
:100F9000B9468C46110011E0009A27B2231C9742F3
:100FA00001DBE023FF331BB2DF43FF173B409F0011
:100FB000FB18DB015B185B10C25C94466746424637
:100FC00097432F430134C754A642E5DC4F46AC4655
:100FD000019B0137BB42B9DC0C9A099991460A9DE5
:100FE0000B9B0133059A4D449BB24908ADB29A421E
:100FF00092D14D46139B1298EB189BB20130994643
:10100000052800D06FE7119B0F9E9C460E9B310078
:101010009A46634652460D9F0498904200D13DE1A6
:101020009C46069B012B00D1A6E11A0090469B002E
:101030004344FB181BB298444246049800921A009D
:101040000B00614684466B4C08B282460698002825
:101050005BD0060017008B4656440293039104921E
:1010600038B2C043A023C017384000B29B0098425A
:1010700000DB6148F0225B465200924501DBE02331
:10108000FF331BB2DA430125D21713409900C91868
:10109000C90109184B10E25C0D4200D09FE10E35EA
:1010A000A846050051466046B94694462A0012E01B
:1010B000F0250FB20B1C6D00AF4201DBE023FF33C4
:1010C0001BB2DF43FF173B409F00FB18DB019B185F
:1010D0005B10E55CAC4667464546AF4307430131CC
:1010E000E754B142E4DB4F468446009B01379F4200
:1010F000B6DB0698029B804603990133059841446C
:101100009BB2049A89B298429ED115B0F0BCBB46FE
:10111000B246A946A046F0BD6246120191460F2292
:1011200090462A0054464D4603978946110011E027
:10113000009A27B2231C974201DBE023FF331BB246
:10114000DF43FF173B409F00FB18DB015B185B1080
:10115000C25C91464F46424617402F430134C75464
:10116000B442E5DB039F33E7049A624500D138E7D8
:101170004A46012A00D1C2E02AB292464A46002AD3
:1011800000D12EE70A9363460B93049B079A4F46C0
:101190009C464B461400AB461648574403910995AC
:1011A0000C9326B2F643A023F617264036B29B00D6
:1011B0009E4200DB104E009A5B46924501DBE02325
:1011C000FF331BB2D9430122C9170B409D00ED1814
:1011D000ED01AD196B10C15C2A4237D10E32904639
:1011E000320055466646A1468C46110018E0C046BE
:1011F00090640010840D00207F020000009A2CB241
:101200002B1C944201DBE023FF331BB2DC43E417C9
:1012100023409C00E318DB015B185B10C25C944622
:1012200064464246944334430135C454AF42E5DC3E
:101230004C46B446019B0134A342B2DC0B9A03999D
:1012400094460C9A099D91460A9BCAE66246120191
:1012500091460F229046320055464E4602948946EA
:10126000110011E0009A2CB22B1C944201DBE02308
:10127000FF331BB2DC43E41723409C00E318DB017F
:101280005B185B10C25C91464C46424614403443A6
:101290000135C454BD42E5DB029CCBE70698013121
:1012A00084460598634489B29BB2884200D0B3E675
:1012B0002BE7009A1EB2181C964202DBE022FF3296
:1012C000101C00B2C6436A46A027F61730408600BD
:1012D00036182020105EF601BF00B84200DB5A48E5
:1012E00036185A4872109046875CF60729D5624630
:1012F0000F263E40170142463E43865471E6009A4F
:101300001EB2181C964233DA00B2C6436A46A027C2
:10131000F6173040860036182020105EF601BF0018
:10132000B8421CDA3618494872109046875CF607B6
:101330000ED50F26049A3E40170142463E4386547E
:101340004FE60F266246B74317434246875448E6A6
:101350000F26049AB74317434246875441E63A485A
:1013600036183A4872109046875CF607F0D5E0E7E9
:10137000E022FF32101CC7E77A1D13B2DB43DB17F4
:1013800013400122A026F02791463048B6001BB238
:101390007F001C00B34200DB2B4C0DB20A1CBD4287
:1013A00001DBE022FF3212B2D543ED172A4095004F
:1013B000AC464D466244D201A41862109446825C49
:1013C000254235D00F25049C2A402401144362464F
:1013D00001318454059A89B28A42DAD195E665468C
:1013E0002D01A9460F25A8460500514648460197FC
:1013F00091462A0012E0F0250FB20B1C6D00AF429F
:1014000001DBE023FF331BB2DF43FF173B409F00AC
:10141000FB18DB019B185B10E55CA9464F4645466F
:101420002F4007430131E7548E42E4DC019F5CE624
:101430000F24A243049C0131224364460255059ABD
:1014400089B28A42A5D160E67F020000840D0020A7
:10145000024B1880024B19807047C04686650220F7
:1014600088650220034A031C002800D10123DBB257
:10147000138070478A650220024B1870024B187067
:101480007047C0468F65022090650220F0B5CE46B9
:10149000474680B50278040083B0002A22D0294B49
:1014A000294D9946294E0DE00D2A08D02888092A91
:1014B0001DD19F239B00984201D2043028802278BE
:1014C000002A0FD001340A2AEED1214B1F4A1B8873
:1014D0001188DB005B18138000221B4B1A802278D6
:1014E000002AEFD103B0C0BCB946B046F0BD4B46B0
:1014F0000027F15F164F1B78B8463F7800B201977E
:10150000144F3F780097FFF7B3FC43461A882988A9
:101510005300D3185B005B180F499BB209782B80EE
:101520000029CCD0A020800084469100511A4900A7
:1015300061448B42C3DD3388D200D218002332804D
:101540002B80BCE79065022086650220886502201A
:101550008A6502208F6502209165022030B589B02E
:1015600000256A466B231F4C1381682102AA2000C4
:101570000095693B04F048FE6A461B4B6821938145
:10158000200003AA0223009504F03EFE6A461B23B6
:1015900068211382200004AA0095193B04F034FE50
:1015A0006A461C2368219382200005AA00951A3BF5
:1015B00004F02AFE6A460D4B68211383200006AA18
:1015C0000223009504F020FE9C236A465B0093836F
:1015D000373B682120000095FF3B07AA04F014FE6A
:1015E00009B030BD080700201907000037100000BF
:1015F000F0B5D6464F464646C0B586B06A463B2350
:10160000D3730F224E4C3A3B05008A4600936A443E
:1016100068212000994604F0F7FD002304AE9846A7
:101620003200009368212000063304F0F7FD327881
:101630007378120213431BB29B002B60B278F378CD
:10164000120213431BB29B006B6032797379120252
:1016500013431BB29B00AB606A464323D3734B46D4
:101660000F2200936A446821200004F0CDFD434618
:101670003200009368212000063304F0CFFD327859
:101680007378120213431BB21C00DB171D00E20E1D
:10169000590111436001001BA941830F9C46674615
:1016A0008B003B438200A4185D41A904A00B0843B2
:1016B000A4040304220C1A4353461A60B278F37848
:1016C000120213431BB21C00DB171D00E20E59016E
:1016D00011436001001BA941830F9C4667468B00A4
:1016E0003B438200A4185D41A904A00B0843A40455
:1016F0000304220C1A4353465A603279737912025A
:1017000013431BB21C00DB171D00E20E59011143ED
:101710006001001BA941860F8B0033438200A4188F
:101720005D41A00BA904A40408430304220C1A433E
:1017300053469A6006B0E0BCBA46B146A846F0BD32
:1017400008070020094A83009A1810B5146840223F
:10175000544080322240064CC000A44663441A60C4
:10176000044B9C466044416010BDC04604C001402B
:1017700004D0014000400140074B8000C3181B68A3
:10178000C90092000A435A400C231340034A94466E
:10179000604403607047C04604C0014004D001406B
:1017A0000123D0228340120693629361094A830089
:1017B0009A1811684022514080320A400649C00000
:1017C0008C4663441A60054B9C4605236044436085
:1017D0007047C04604C0014004D0014000400140B1
:1017E0000FB400B5084883B004F036F8049B002B12
:1017F00007D005A91800019103F082FE034804F008
:101800002BF8012003F094FE846300109463001011
:10181000EFF3108072B6034A1368002BFCD0BFF3BD
:101820005F8F70472C0100D0BFF35F8F0022024B07
:101830001A6080F3108870472C0100D070B5EFF368
:10184000108C72B60D4D2B68002BFCD0BFF35F8F50
:101850000724CB08C618C05C01230C40A3401C0021
:101860000440034207D118433070BFF35F8F2C60F0
:101870008CF3108870BD1000FFF7B2FF2C0100D070
:10188000F8B54746CE46884680B5EFF3108C72B661
:101890001C4D2C68002CFCD0BFF35F8F9A4222D8DD
:1018A00007210126894602E00132934218D34D46B2
:1018B00037001540AF40D4080119045D2742F3D129
:1018C00010003C430C70BFF35F8F00220D4B1A6079
:1018D0008CF3108800280EDBC0BCB946B046F8BDBA
:1018E00001204042EFE7BFF35F8F00232B608CF3B2
:1018F0001088012040424346002BEDD00898FFF7A6
:101900006FFFC0462C0100D0044A1078431CDBB2A4
:10191000172B00D9102313707047C0466C060020A7
:101920000021044B044ABFF35F8F02C39342FAD1F4
:101930007047C046000100D0800100D0054B064A28
:101940001360064A136053609360D3601361536160
:10195000936170478080808000E400E004E400E050
:101960001F2318401E3B8340002905D0C021044A94
:101970004900535013607047802201498B50FAE7A9
:1019800000E100E070B50D00EFF3108672B60F4A6B
:101990001368002BFCD0BFF35F8F0D4B10309B689A
:1019A00084001B590B4A934203D09D4201D000F0A2
:1019B0002DFF074B9B681D51BFF35F8FBFF35F8FF8
:1019C0000022024B1A6086F3108870BD240100D0FB
:1019D00000ED00E0CD010010F0B5DE4657464E4662
:1019E0004546E0B50C0083B0EFF3108872B6634A49
:1019F0001368002BFCD0BFF35F8F614B61499A687D
:101A0000030010339F00D55901938D4243D0A54266
:101A100054D05D4EAA1B2F2A3DD85C4B9B461B68B9
:101A2000994601231A009C4682404B4613401F22D0
:101A300099466346024093409A4680225B46504650
:101A40009850BFF35F8FEFF305839B46002B37D091
:101A5000019B5B4501D000F0D9FE01232A009A4387
:101A60009068844208D176E04B005B189B00F31825
:101A70009868844236D01A00062151560029F3DABC
:101A8000844254D04B46002B27D0C02251463F4BB6
:101A90005200995019603A4B9B68DD51BFF35F8F3C
:101AA000BFF35F8F0022354B1A6088F3108803B0B4
:101AB000F0BCBB46B246A946A046F0BD0D00EAE721
:101AC0002A0063469A4390688442D5D10620105676
:101AD000130000280ADA0D0031E0802351462B4A1A
:101AE000D150D8E706201856002821DB42001118F3
:101AF000890074188B46A1689960E179D971062133
:101B000061569971002924DBA488F11A6405241513
:101B10005C44091909051E4C490D2143998013188D
:101B20001C4A9B001178F31899711070AAE71300F2
:101B30005946002914D1FF319171174991801549F7
:101B40000A789A71154A9B1B5B415A43120D0A7021
:101B500098E71149E2E70620105613000028C5DA7D
:101B60000F4A1049D21A083A5002400D0143998099
:101B70000D4952080A43DA8084E7C046240100D0A8
:101B800000ED00E0CD0100107006002000E100E053
:101B900000E0FFFF8E65022001BDFFFFAAAA000042
:101BA000AA06002000F0FFFF00F8FFFF70B5012437
:101BB0000443EFF30581EFF3108C72B6214A1368EA
:101BC000002BFCD0BFF35F8F1F4B05001F4AED1A9F
:101BD0006D416A43120D1E4D8900AE6852B27658AF
:101BE000A6421CD00621595691421CD012215956AA
:101BF000914222D01E215956914220D02A21595675
:101C00000324914210D0134B19781A708171BFF3DD
:101C10005F8F00220B4B1A608CF3108870BDAB688D
:101C20000D4C5C50EFE700246100091989005B1836
:101C3000FF21997109499980E5E70124F4E702241D
:101C4000F2E7C046240100D070060020AAAA0000D6
:101C500000ED00E08E650220CD01001001BDFFFF08
:101C6000024B9C466144890001607047400000348B
:101C700070B5114C114DAC420FD2FF262368002BDA
:101C80000CD0FFF741FE01002000FFF7E9FFA6801E
:101C9000BFF35F8F0834AC42F0D370BDFFF734FE62
:101CA00001002000FFF7DCFF2671BFF35F8F0834CF
:101CB000AC42E3D3F1E7C046100700202007002024
:101CC0000A4B1968EFF3108072B60A68002AFCD03C
:101CD000BFF35F8F1B68BFF35F8F00221A6080F332
:101CE000108840BF002000217047C046780D0020BA
:101CF000F0B5DE4657464E464546E0B587B0EFF3B1
:101D00000583032201251A40954091008846A94683
:101D1000B34B03925C58B34B1D60B34B04934B46DB
:101D2000B24843630823E55E002D37DAA3881BB26F
:101D3000002B00DBADE0A379002B00D0EEE0082300
:101D4000E05E002820DB430062691B18DB00D3182B
:101D50009E68DD68731C00D111E1A4480100414474
:101D6000826A0B69B71A9B1A9F4215D30123026A34
:101D7000039883401A420FD09C4800F0C9FA8D4264
:101D800002DCCCD18642CAD940BF07B0F0BCBB460A
:101D9000B246A946A046F0BD0E61EDE762696B0050
:101DA00092465B19DB009A4453469E68DF6800F058
:101DB000AFFA8F42BADC00D103E1002F00DAE8E08D
:101DC0005246534652691B699346049A934200D186
:101DD000D9E052460821605E5288000459461043FB
:101DE0009847009001910099019A0B00100013434D
:101DF00000D1CEE013000A00B61A9F41002806DB8E
:101E00007A4800F085FA009E019F36184F415346EC
:101E10009E60DF6000229A5E002A00DA86E75300A7
:101E200099186069C900411802938B68C9689B467C
:101E3000B94200DD7AE702D1B34200D976E7082340
:101E40009C46A444059565462281A446029B2C002D
:101E500006E053009918C90041188D68C968AB465F
:101E60009B18DB00C318B94206DC00D1B3E01C00AC
:101E70000023E25E002AECDA230064469C465346C7
:101E80001A806346059D1D80A3881BB2002B00DAD3
:101E900051E72269EFF3108172B61368002BFCD072
:101EA000BFF35F8F0123A7885B42A3803FB2236902
:101EB000BFF35F8F00221A6081F31088002F00DAD1
:101EC00039E72300083322009A4666697B00DB1954
:101ED000DB00F318996850468C460824115FDD68D2
:101EE000002910DB029306E0AB4244D00023E15E00
:101EF0002000002906DB4C006418E4003419E36874
:101F0000AB42F1DD029B078000201F5E1980002F8D
:101F1000DCDA1400A379002B00D110E70023A371B1
:101F200026000823E15E08364B1C00D12CE7080090
:101F3000A246656902E03E004B1C1AD04B005B18BC
:101F4000DB00EF180A008C46E95E7B881BB2002B91
:101F5000F1DA01235B42DC17BB60FC60824205D0F2
:101F6000534631801B893B8053461A8160464B1C87
:101F7000E4D15446E5E6A3686345B7D9C2E76B1CD4
:101F800000D0EAE6F8E65B4658461B699847002809
:101F90001BD153461B8822692381EFF3108372B64D
:101FA00011680029FCD0BFF35F8F514662880A8018
:101FB00022696580BFF35F8F0021116083F3108871
:101FC000B4E6864200D8F8E6B0E65B461A685B687D
:101FD0000092019307E7B34500D848E74CE7C046B5
:101FE000F40B00203C700540F11C0010004005403F
:101FF00070B52E4C2569002D04D00A212C48FFF71E
:102000002FFE70BD2B4E0321300000F077F9E66003
:10201000FFF77AFC284B03229C46D02322701B0634
:102020001B6801216370254B6044A3600F2380006F
:1020300020610220638063694942A18019800231D6
:10204000198647311D83585218315A5275325C39FE
:10205000995218320131995218320131995218327D
:1020600001319952083518329D5202311832995275
:102070001832013199521832013199521832013116
:1020800099521832013199521832013199520C4B40
:102090000C49DC6001303562FFF774FC012103203C
:1020A000FFF75EFC084B1D60A7E7C046B80600209E
:1020B000780D00200040054040000034FFFF100074
:1020C000F40B0020F11C00103860054070B50100D1
:1020D0000469EFF3108C72B620680028FCD0BFF3BF
:1020E0005F8F02200D5E4C6968004019C000241803
:1020F0000869002D36DB26884E80BFF35F8F0026EF
:1021000006608CF31088E3606388049801332061D3
:102110005B0405985B0CA26060611A1C002B1FD049
:1021200093B22804628018430A69EFF3108C72B6E8
:102130001368002BFCD0BFF35F8F8B8823808D80CA
:102140000B69BFF35F8F00221A608CF310880B7845
:1021500001329A40CB6808498C4663441A6070BDCE
:102160000122DDE7BFF35F8F002303608CF310884B
:1021700001204042F3E7C0463C20000010B54389EF
:102180000A1493421ADD53009B184269DB00D318EE
:102190000469EFF3108C72B62268002AFCD0BFF3FA
:1021A0005F8F5A88090494B2090C8A4208D00369E7
:1021B000BFF35F8F00221A608CF31088002010BDDF
:1021C0008022120214435C80012302698371BFF3F1
:1021D0005F8F002111608CF31088044902788C46CF
:1021E0009340C268012062441360E8E73C2000008D
:1021F000F0B557464E46DE464546E0B506000F00B0
:1022000085B0EFF3058399468B46002B12D03849F1
:1022100000204B6ABB4206D38A6ADB1B591E8B41E6
:10222000B2424041184305B0F0BCBB46B246A94695
:10223000A046F0BD2F4B9A46DB68984653461B7864
:102240004046039300F064F84246039B04000433C5
:102250009B009B580D001B1A39003000001BA94140
:10226000894510DC0DD020BF214A0020536A5B4510
:10227000D9D3926ADB1B591E8B41B24240411843AD
:10228000D1E78342EFD900F04BF832003B00121A3D
:102290008B41002B1ADB00230193174B3200009374
:1022A00050463B00FFF712FF011E0FDD104B5A6A2C
:1022B0005A451BD39B6AB34216D35046FFF75EFFC5
:1022C0000B4A0020536A5B45ADD3D2E7084A002091
:1022D000536A5B45A7D30020926ADB1BB2424041A0
:1022E0005A1E934118439EE75A45E6D120BFE4E7C2
:1022F00000400540B8060020C11C001010B5024A7D
:102300000248FFF79BFA10BD98630010780B00207D
:102310000300416A0A00986A596A8A42FAD17047F2
:10232000034B596A0A00986A596A9142FAD1704778
:102330000040054070B504000D00174A536A1900AB
:10234000966A536A8B42FAD13000190024184D4125
:10235000AB4216D813D0104B2A005B6A9D4203D9BA
:102360000D494B6A9342FCD3934207D10A4A02E0DB
:10237000516A994202D1916AA142F9D370BDA64235
:10238000E9D9054B5B6A1C005A1CEFD001220124DD
:102390006442E5175242E3E700400540F8B5040007
:1023A00006200D0000F078F9002844D0374B38495A
:1023B000E3185A1E93418022120494465B429B0DFF
:1023C000344A9B0563441360334A136018000A685B
:1023D0009043FBD12D4B314AE31859424B418021A8
:1023E0005B0049000620995200F056F92900C00010
:1023F00000F012FB0130C3091ED1402701226262A6
:10240000A362266BF30722D4E36A254B0620E51866
:1024100000232B60266300F03FF93900800000F0B4
:10242000FBFA7023E26A5A400E3313402B601D4BB7
:1024300023630323A364F8BD1B4A93421ED90023E0
:102440001A4A1B4F6262A362266BF307DCD5194B55
:10245000144AE3181A60656AA36A0620AD01ED18F4
:1024600000F01AF9144900F0D7FAAD020100280073
:1024700000F0D2FA0021FFF75DFFC5E74006800EAD
:102480009F011A003F180300B9E7C0460080FCBF57
:1024900008C0004000E0004000F000407C0D00203B
:1024A0002C10000001030000FEFF0000FFFF0000F1
:1024B000C0FF3F00303000004E0E0000F8B5DE4691
:1024C0004E4657464546E0B58B4605000A9918002A
:1024D000160000F0A1FA0A9B6C001F02324B64192F
:1024E0009C46A4006444636881469F4200D96760AB
:1024F0002B1FDBB29846012B30D9C02380229B01D1
:10250000E31812011A60294BAD0059599A46002967
:102510001BD17301E026226853401E4080234246AF
:102520005B01E3181E60012A30D9802380229B01C1
:10253000E31812011A6053464A4667605A51F0BCCC
:10254000BB46B246A946A046F8BD586900F064FAF9
:10255000013043001B18033BFDD2DAE75B46012B39
:10256000CBD1C02303229B01E3181A60023AA3686F
:102570001A42FCD07301E0262268AD0053401E4091
:1025800080230A4A5B019246E3181E605A4621687E
:10259000514003220A401A6001225B469A40A36818
:1025A0001A42FCD0C1E7C046008000407C0B0020EE
:1025B000F0B546464F46D646C0B51F00344B4400E2
:1025C0009C462418A4006444636888461600FF2BC8
:1025D00002D880235B006360031FDBB29A46012BA5
:1025E00030D9C02380229B01E31812011A60294BC5
:1025F00085005959994600291BD17301E0262268AC
:1026000053401E40802352465B01E3181E60012A9E
:1026100030D9802380229B01E31812011A608023A5
:102620005B0063604B465F51E0BCBA46B146A846CA
:10263000F0BD586900F0F0F9013043001B18033B6E
:10264000FDD2DAE74346012BCBD1C02303229B0105
:10265000E3181A60023AA3681A42FCD07301E0261C
:102660002268850053401E4080230A4A5B01914640
:10267000E3181E6042462168514003220A401A6056
:10268000012342469340A2681342FCD0C1E7C046F2
:10269000008000407C0B0020014B8000C058704738
:1026A0007C0B0020F8B5040021481E0017000D0027
:1026B00000F0B2F90100380000F0AEF9069B3604D4
:1026C0001B031E432368002B20DB1A4B1A49E31817
:1026D0005A1E93418022920194465B421B0B174A7B
:1026E0001B0363441360164A13601F000A68974374
:1026F000FBD1144B2560E2182123A06013602368EE
:10270000002BFCDA0823E6601360F8BD3F23226843
:102710001340AB42D9D1A3681B051B0D8342D4D112
:10272000EE22E368D2021340B342CED1EDE7C046B9
:10273000001BB7000040FDBF08C0004000E00040A3
:1027400000F00040043000008023024A9B000B434D
:10275000D362704700800540002310B50100988ABD
:102760001B8B984710BDC046162310B50100188872
:1027700002331B88984710BDF8B54746CE4680B552
:102780000F1E18D014239946043304000025012697
:1027900098464B461888434621681B88984701C4D1
:1027A000431E984101350640AF42F2D13000C0BC13
:1027B000B946B046F8BD0126F8E7C046002370B51B
:1027C00004000D00988A05491B8B984703000020E0
:1027D000002C01DB0130A040290098475542000041
:1027E000AA23064A1B0113608D235B00D3600449B2
:1027F000044B19605368002BFCDA7047004002401C
:1028000000B0FA00006002407047C04610B50148B1
:10281000FEF7E6FFBC63001070B5074D074EB542EA
:1028200009D20024013E761BB60808CD9847230044
:102830000134B342F9D170BDE06200101C63001096
:10284000054B064A06491A60064A074B1A601000F3
:102850000B689843FBD1704700E00040BFCDFBFE02
:1028600008C00040FE7F3C0000F00040044BDB6CE1
:10287000002B03D18022034BD2021A607047C0465E
:10288000000011504C201150044A054B1A60054AB3
:102890001368DB018033FBD17047C046FFFFFF01A7
:1028A00000F0004008C000404022034B9A675A677E
:1028B0001A67DA667047C04600F0014010B5FFF7AE
:1028C0002FF810BD70B5044D044CA968C02220003B
:1028D00001F096F9AC6070BD00ED00E00000002052
:1028E000002310B5294C82B0A367FFF779FF0122BE
:1028F000274B1A60636C012BFCD10322254B1A6015
:10290000224A936B012BFCD1013300930121224A0F
:1029100022480433FFF7C6FE052301210093204A15
:102920002048FFF7BFFE0022022104201E4BFFF7C4
:102930003FFE0022012105201C4BFFF739FE00223B
:10294000002107201A4BFFF733FE00220021082048
:10295000174BFFF72DFE8023DB00009300220021A0
:102960000920134BFFF7AAFD0022104B002106207F
:10297000FFF71EFE0420FFF78FFE0E4900F04CF813
:1029800001000020FFF7E0FE02B010BD0080004013
:102990003CB0004030B00040002F68590080024039
:1029A000008C864700C00240001BB70040597307E7
:1029B000006CDC0240420F0001480421014B184723
:1029C000D006002079270010124A936F9B0815D279
:1029D0009066D166002905D0FFE7FFE7FFE7516F5A
:1029E000106F704704B580210906C21751400028B6
:1029F00000D0C84303F05CFC002104BDF0B5146EA8
:102A0000556E576F166FFFF7E3FF146655665767ED
:102A10001667F0BD000000D0114A936F9B0813D2D7
:102A200010665166002905D0FFE7FFE7FFE7516F09
:102A3000106F704704B5002801D00020C04303F098
:102A400037FC002104BDC046F0B5146E556E576FBB
:102A5000166FFFF7E5FF1466556657671667F0BDFA
:102A6000000000D094464A4A926F9208624601D212
:102A700028E0C046F0B5464E346E756E776F366FFF
:102A800000F020F89446424A146655665767166768
:102A90006246F0BD94463E4A926F9208624601D269
:102AA00054E0C046F0B53A4E346E756E776F366FAF
:102AB00000F04CF89446364A146655665767166718
:102AC0006246F0BD002B24DB11D000293EDA00B5B0
:102AD000C943404200D1013100F038F8C9434042B7
:102AE00000D10131DB43524200D1013300BD002A45
:102AF000EBD1002801D1002905D00020C90FC9075A
:102B000001D1C043410800B503F0CAFB00220023F5
:102B100000BD00B500290ADBDB43524200D101337E
:102B200000F014F8C943404200D1013100BDC9434F
:102B3000404200D10131DB43524200D1013300F069
:102B400005F8DB43524200D1013300BD002923D1F7
:102B5000002B18D1002A0CD0BC460D4F38667A667F
:102B600000210023FFE7FFE7FFE77A6F386F674632
:102B70007047002801D00748010000B503F090FB22
:102B80000022002300BD02000B000020002170473E
:102B9000000000D0FFFFFFFF002B00D0BFE0130CB0
:102BA00028D1002AE7D080B4114F39667A66FFE752
:102BB000FFE730B4040C7B6F396F1B0423433B6683
:102BC0007A66FFE7FFE7FFE7C04684B27B6F3D6FA1
:102BD0001B0423433B667A66FFE7FFE7C0460023FA
:102BE0002C042D0C7A6F386F00196941B0BC704706
:102BF000000000D0F0B594460025140E01D1120259
:102C00000835140F01D112010435940F01D192003F
:102C10000235D40F01D152000135D40B0134254FB8
:102C20007C66254C3C660E0C93B2FFE7FFE7FFE79E
:102C30003C6F6643360C7703BE467343DF0B5B0481
:102C4000C01AB941130C7343DB18C91ACE08664386
:102C5000360CB64493B273431F0F1B01C01AB9411F
:102C6000130C73431F0B1B05C01AB941860D8F024D
:102C70003E436643360C092D24DB520A7243801A08
:102C80007703460A6643360C16235B1BDE40DF40A3
:102C9000BF1964466643821B704604350633010043
:102CA000D940A840C01900D30131A24206D2002366
:102CB000F0BD0000000000D0FFFFFFFF121B01303D
:102CC000F3D3F1E709277F1BFE406446A2B27243AB
:102CD000801A00D20139220C7243130C1204821A9A
:102CE00099410B007046043513370100F940A840A4
:102CF000801900D30131002B02D1A2420AD2F0BDCB
:102D0000013000D30131121BFAD2013BF8D1A242AB
:102D100000D2F0BD013000D30131121BF7E7F0B54E
:102D20001C0C00D080E00CB400251C0A04D11B024E
:102D3000160E3343120208351C0B04D11B01160F6B
:102D40003343120104359C0B04D19B00960F33438F
:102D500092000235DC0B02D192185B4101351C0058
:102D6000971864410134464F7C66464C3C660E0C15
:102D7000FFE7FFE7FFE7C0463C6F6643360C77038B
:102D8000BE4697B27743C01B00D20139C01B00D2A8
:102D900001399FB27743C91BC91B170C77437E04C7
:102DA000FF0B801BB941CE086643360C0C2D33DB7C
:102DB000B644120B1F053A431B0B97B27743C01B57
:102DC00000D201399FB27743C91B170C77433E04E9
:102DD0003F0C801BB941860D8F023E436643292775
:102DE0007F1BFE400C3D7746AF40BF1930BCA2B2FE
:102DF000ABB272437343801A9941220C7243130C95
:102E00001204801A994102000B000137001BA941EE
:102E1000F9D2781E0021F0BD0C277F1BFE407746BB
:102E20007F0BAF40FF19E0E700245D1C07D0144F73
:102E30007D663966FFE7FFE7FFE7FFE73C6F95B286
:102E40009EB265436643401BB141150C1E0C6543A1
:102E5000664336042F0C3E432D04401BB14199427A
:102E600004D202000B0020000021F0BD01D19042ED
:102E7000F7D3801A994101349942F2D3F6E7000062
:102E8000000000D0FFFFFFFF44464D4656465F4618
:102E9000F0B47047F0BCA046A946B246BB467047A6
:102EA00048404140484018B41B4B5B68FC460193C6
:102EB00008BD04DF6331001018B4174B1B68FC46D3
:102EC000019308BD00DF6D3100109446134A926FE4
:102ED000920809D2624618B40F4BDB68FC46019396
:102EE00008BD0CDF253400100C4AF0B5146E556E89
:102EF000576F166F6246FFF7EEFF084A1466556675
:102F000057671667F0BD18B4034B9B68FC460193E6
:102F100008BD08DFC932001040090020000000D0C1
:102F2000FFB550404240504059404B40594000E0AE
:102F3000FFB5154F4C00640D03D0BC4204D10C0307
:102F400014D80020090D09055C00640D03D0BC42B3
:102F500004D11C030AD800221B0D1B0501264B407F
:102F600009D44B4003D58B4200D18242FFBD994228
:102F7000FCD19042FFBD0B43DB1803431343F5D054
:102F8000C9434918FFBD0000FF07000000B5FFF767
:102F9000CFFF804100BDC04600B5FFF7C9FF01D992
:102FA000002000BD012000BD00B5FFF7B9FF01D929
:102FB000002000BD012000BD00B5FFF7B1FF80413A
:102FC00000BD012040054A00121804D85A0012180A
:102FD00001D8002070470120704700000021002820
:102FE00005D17047C1174840401AFAD0C90713B538
:102FF000064B1B6898470CBC441CA2401005120BE2
:103000000349091B09051943114310BD740D002024
:103010001F04000010B54C00620D8023D218DB00A5
:10302000D21A5B057E2A10DD9E3A13DACC1709030B
:10303000490819435242D140640001341532202A14
:1030400005DAD0400843604310BD002010BD08469B
:10305000604310BDC80FC018013810BD18B4044B30
:103060005B6AFC46019308BD24DF5936001000005E
:103070004009002018B4044B9B6DFC46019308BD29
:1030800058DF19390010000040090020132370B5E3
:103090001D78012D19D014DD1F48FFF765FB0600D0
:1030A0001E48FFF761FB1E4C80223100200000F01B
:1030B000A7FD022D2DD01B48FFF74EFB1A4B1860C1
:1030C00070BD1A4B164CA364F5E7184B144C2360E3
:1030D0006360A360E36023616361A361E3612362D2
:1030E0006362A362E36223636363A363E3632364B2
:1030F0006364A364E36423656365A365E365236692
:103100006366A366E36623676367A367E367A364F5
:10311000D1E7064BA364CEE75344000053460000BA
:10312000400900204C330000740D002031310010A4
:1031300007B5604601880A0A0230DF2AFAD1C9B20F
:10314000820804D3028840880004104300E000682D
:10315000014A5050039007BD400900200FB403BC42
:103160000CBCF0B50124E407634000E0F0B50C0DA1
:10317000CF0F661E3605891B640503D3C943404241
:1031800000D30131640D03D0661CF60A07D0E41B9E
:1031900000207F00791C89078912803C24031D0DC3
:1031A000DF0F6E1E36059B1B6D0503D3DB435242BA
:1031B00000D301336D0D03D06E1CF60A07D0ED1B52
:1031C00000227F007B1C9B079B12803D2D032F1B41
:1031D000661B58D4A446202E46DA20371400BC4083
:1031E0001D00BD40F24033412A4380185941CB0FA6
:1031F00005D0C943C0430022644250415141624658
:103200004D0D28D10D0D07D100281FD024194041A4
:103210004941013A0D0DF9D0640006D3013000D3C5
:103220000131002C01D140084000013A0BD4941C1C
:10323000E40A04D112051144DB071944F0BDD90793
:10324000204B194300E0D9070020F0BD0029DDD153
:10325000002CDBD1F0BD0132C6074008CD07284362
:103260004908002EE1D0D9E73C2E29DA203E40372C
:103270001400BC4000D00124F24014431A00BB40AB
:103280001C43D317ACE7AC46202F08DA20360400E5
:10329000B4400D00B540F84039412843A5E73C2F24
:1032A0000CDA203F40360400B44000D00124F8403E
:1032B00004430800B1400C43C117EAE710001900AD
:1032C000002494E70000F07FF0B50C0D661E360573
:1032D000891BE60A6405640D02D0651CED0A04D062
:1032E000002001210905803C2403A4461C0D671E13
:1032F0003F05DB1BE70A6405640D02D0651CED0A7F
:1033000004D0002201231B05803C24037740644441
:1033100097B484B296B27443070C7E43150C6F4386
:1033200080B26843361802D3012000043F183004ED
:10333000350C00197D41844688B29AB250430C0C7A
:1033400062431F0C7C438EB27E43921902D3012646
:103350003604A4191604170C3618674101BC81B253
:103360009AB25143040C62431B0C5C4380B2584335
:10337000121802D30120000424181004130C401862
:1033800063412D185E410020474106BC88B293B2CC
:1033900058430C0C6343120C544389B251435B18DD
:1033A00002D301210904641819041A0C0918624196
:1033B0006D1856410020474118BCF902720D1143A7
:1033C000F0026A0D1043ED020A0D03D16D19404160
:1033D0004941013B124E9B1B7600B3420ED26D0059
:1033E00007D30130002671416646354301D14008BC
:1033F00040001B05C918E4072144F0BD0BDA013376
:1034000006D1013004D101314F0D01D04908F2E756
:10341000E1070020F0BD013631050020EBE7000098
:10342000FF030000F0B51C0D671E3F05DB1BE70A1C
:103430006405640D02D0661CF60A04D00022012344
:103440001B05803C2403D0252D060026F6432E665E
:103450001E096E66CE0FF619B44649004F0D02D014
:103460007E1CF60A03D000200021403F3F033E1B94
:10347000B600B444013F7F05C91B49082E6F0136D1
:1034800076089C02950D25437543ED137543AD13E6
:1034900001356D10F603761B0CB4CC02450D2C43A0
:1034A000A2B2B3B25A43270C7B43350C6F43A4B28C
:1034B0006C431B1902D3012424043F191C041D0C66
:1034C000A4187D4124196D41009A91B2ACB26143B8
:1034D000170C7C432B0C5F4392B25A43A41802D3BF
:1034E00001221204BF182204230C52187B41019CB4
:1034F0006C431B19520ED9010A434401A01A81B230
:10350000B2B2514303145A43360C734387B2774324
:10351000D617D21900277E4136049B191704160CC2
:103520007F185E417316ED18F30100268033754154
:10353000A90F06D16400690AE8055B0A184309D29D
:103540002FE00422944480337541A90AA8059B0A00
:10355000184326D3404149412404009A019B0D00A1
:103560005543641B4343E41A95B286B27543170C66
:103570007E43030C5F4392B25A43B61802D3012232
:103580001204BF183204330C52197B4152429C4141
:10359000002C02D40022013051414008CA071043D8
:1035A000490802B06246D7079210084BD218084B60
:1035B0009A4203D212058918C919F0BD0020002AC9
:1035C00001DC3900F0BD01331905F5E7FD0300000A
:1035D000FE070000624618CA94465A46002A20DBBD
:1035E00004E0624618CA944600291ADAC0186141FC
:1035F0005B463B415C46B4405246FA402243444657
:103600004D4662416B41904699462B46B3403D4141
:10361000FC401C4352465B46A241AB4192469B464E
:103620007047C01AA1414B463B414C46B44042460C
:10363000FA40224354465D4662416B4192469B46A6
:103640002B46B3403D41FC401C4342464B46A24101
:10365000AB41904699467047002200B5203200F0F9
:1036600010F8080000BD002200B500F00CF8CA17E1
:103670009A4200D100BDD8430121C907414000BD95
:1036800000220B150AD410B5944600F079F81414F2
:10369000013400DA0021CB17144C20470020002110
:1036A00070476244343A0CD40C2A07DA0400914083
:1036B000904052422032D440214310BDD843D943D8
:1036C00010BD203207D40C469440524220321141A2
:1036D000D040204310BD0800C917203203D4524205
:1036E0002032104110BD1800190010BDA336001083
:1036F00000210A00002104E000210A00C11704E0B3
:103700000022002306E0C0460022CB175840594053
:10371000C01A994130B5184CA21A002903D10100F2
:1037200010D00020203A4C1512D104D2013A0018D2
:1037300049414C0DFAD3114CA24204D2120589180A
:10374000DB07C91830BDD243520D00200021F5E738
:1037500003D4013A00184941FBD50B324405C00A95
:103760004D052843C90A640003D00024604161412B
:10377000E1E7E0D34408F8E732040000FE07000068
:103780000A0DCC0F531E1B05C91A520503D3C9439A
:10379000404200D30131520D03D0531CDB0A07D045
:1037A000121B00206400611C89078912803A1203F1
:1037B000014BD21A70470000FF030000023225D4EB
:1037C0000C2A1CDA1125AD1A0B002B4108320735E3
:1037D0000600EE40904091403143F0CC63431A150F
:1037E00000235A41554356435743BF02F41276050E
:1037F00076196741ED177F19801BB94170470C227C
:103800000020C917490001310905DBE70902030E51
:10381000194300025342203208D40C00194194404D
:10382000D840204300225041514170470800C91739
:10383000203B2032F1D500200021002270470000FB
:1038400000B5FFF79DFF30A4FFF7B8FF00242C4D13
:103850002C4ED20702D3F6436D426641520004D289
:10386000A246A346A846B14603E0A046A146AA4602
:10387000B3466EA4A44601271F26FFF7B2FE013708
:10388000013E212FF9D100BD594684B28DB26C435F
:10389000061475430B145E4382B25A43AD18EA17FF
:1038A00000D7D2431204B6182A042B0C1219734104
:1038B000404649469D009B17920F2A4390419941EB
:1038C0003E2222E7494684B28DB26C43061475430A
:1038D0000B145E4382B25A43AD18EA1700D7D243A5
:1038E0001204B6182A042B0C12197341504659467B
:1038F0009D009B17920F2A43504159413E2204E7F5
:10390000BB4DF09DC556F6367D5100001A6114007E
:1039100085880A00FB211900F0B5FFF7B5FA404D84
:103920000C002C4001D0AC4202D1090D0905002049
:103930001C002C4001D0AC4202D11B0D1B05002203
:103940000026ED02002B04D502266B40694000D40E
:1039500076424F1904D599420CDD0136694003E0E7
:10396000BB4207DA013E6B40070010003A000F002F
:1039700019003B0040B4002A0FD1002B0AD05C0094
:103980006415013409D14C006415013402D10139A8
:10399000013B02E0002000212EE0FFF743FD3E2224
:1039A000FFF762FE82468B460020002180460122FE
:1039B000920791461DA4A44601271F26FFF70AFE81
:1039C0000137013E212FF9D14A4653460C3A0124D2
:1039D0006407002752081B0005D493410019794160
:1039E0006408F7D104E05341001BB9416408F1D1E8
:1039F000CE0749104008304340BC002E0AD0094C85
:103A0000094D01D5E443ED43F60701D100196941A1
:103A1000001969413D22FFF778FEFFF73BFAF0BD40
:103A20000000F07F8D305A88A8F64332694FBB61A1
:103A30000567AC1DB16E4096FCBAAD0F72DB0BABE7
:103A4000A66EF50739BD9FE576ABFE034B6297BACC
:103A50005BD5FF01D694DBDDAAFAFF005DEAEE56E6
:103A600055FF7F006E77B7AAEAFF3F00BCBB5555F4
:103A7000FDFF1F00DEADAAAAFFFF0F006F5555F531
:103A8000FFFF0700ABAAAAFEFFFF03005555D5FFB5
:103A9000FFFF0100ABAAFAFFFFFF00005555FFFF33
:103AA000FF7F0000ABEAFFFFFF3F000055FDFFFF77
:103AB000FF1F0000ABFFFFFFFF0F0000F5FFFFFF40
:103AC000FF070000FFFFFFFFFF03000000000000F2
:103AD00000020000000000000001000000000000E3
:103AE0008000000000000000400000000000000016
:103AF0002000000000000000100000000000000096
:103B000008000000000000000400000000000000A9
:103B10000200000000000000010000000000008022
:103B2000000000000000004000000000514343433B
:103B3000C9188C46110C83B24B4310B4040C61437A
:103B400092B280B2504362431C041B0C001910BC9B
:103B500059411304120CC0185141614470470000D0
:103B6000132310B512481C78FEF7FEFD0100012C4E
:103B70000AD003DD80220F4800F042F80E48FEF71D
:103B8000EBFD0E4B186010BD0A4C5422200000F0D3
:103B900037F80B4B6365A365E36523666366A3662D
:103BA000E36623676367A367E3672362E361E5E78F
:103BB00053460000400A00204C330000740D0020E2
:103BC000C53B001007B5604601880A0A0230DF2AAB
:103BD000FAD1C9B2820804D3028840880004104395
:103BE00000E00068014A5050039007BD400A0020E1
:103BF00001480421014B1847E006002079270010F6
:103C0000014B5B6818470000E00600209A4200D292
:103C1000885470477047C046F8B55746DE464E4652
:103C20004546E0B599460A9B07009A460D9B884693
:103C300093460B9C9B073BD10C9B9C423DD21E1B89
:103C40000B9415000C005E442A004B460135210000
:103C50002020B847B542F7D1A0460B9C002C20D0BD
:103C6000454636195346321B013C185D29004B4628
:103C7000B847002CF6D12B00350098460D9B9B07CA
:103C80000FD55B46EC1A0C9BA3420AD946469846D0
:103C90002A004B46310020200134B8470135444505
:103CA000F6D32800F0BCBB46B246A946A046F8BDF4
:103CB00016001500002CD3D1E0E716001500002CEB
:103CC000CED1EEE7F0B54546DE4657464E46E0B566
:103CD00085B09C4610AB1B78149F934698460F9C6A
:103CE000129E139DBB074CD4002D42D1B44248D242
:103CF00001233B4099460E9B013B9A46302304E04A
:103D0000524601341355A64201D9202CF8D14B4616
:103D1000002B00D183E00E9B013B99463023A54246
:103D200005D82EE04A4601341355AC4229D0202C48
:103D3000F8D1FB060CD57B0554D4A64263D0A5422E
:103D400061D0119B102B50D0022B57D0202C32D198
:103D5000202301930E9B5A460093039763460295D6
:103D6000FFF75AFF05B0F0BCBB46B246A946A046D5
:103D7000F0BD01233B40994601233B422AD1B44286
:103D8000B9D3FB061CD57B05DBD4002CD5D1119B08
:103D9000102B5BD0119B022B6BD0302301240E9A89
:103DA00013704346002B10D17B073ED52B260E9A6D
:103DB000631C1655CDE72300013430260E9AD654E5
:103DC000202CC5D04346002BEED02D260E9A631C26
:103DD0001655BEE74346002B2FD0013DB44200D21A
:103DE00089E798E7119B102BB2D1BB0637D5202C61
:103DF000AED058230E9A13550134A7E7202CA7D034
:103E00002300013407E0631E012CC0D0119A102A50
:103E100031D0022AD1D162260E9AD65496E7FB06FB
:103E2000CED57B0500D488E78BE723003E0790D5ED
:103E300020260E9A013316558BE70C233B405A1E61
:103E40009341ED1AB44200D255E764E7BB060ED4A5
:103E500078230E9A0224137030235370A1E7202C8C
:103E600000D175E778230E9A135501346EE7582375
:103E7000EFE76033EDE70E9AA61E91464E44BA0670
:103E800002D55822327098E77822327095E7C04602
:103E900010B5002800D110BD01F094FCFBE7C0462E
:103EA0000B0010B5002802D049681B68984710BD68
:103EB000F0B55746DE464E464546E0B595B08346DA
:103EC0000F00924698461E9A1F9B10001900209ED4
:103ED000FFF777F8002800D0EAE11E981F99012229
:103EE000C54B5242FFF752F8002800D014E11E984B
:103EF0001F990122C14B5242FFF75EF8002800D003
:103F0000E9E01E981F990022BD4BFFF755F80028E5
:103F100000D0C8E01E981F990022BA4BFFF736F870
:103F2000002800D0BFE01E981F9900220023FFF751
:103F30002DF8002800D0E4E000230B93229B5B05C2
:103F400000D406260024302307E0172106AA0134F6
:103F500052181355013E202C01D0092EF5D81E9879
:103F60001F99FFF757F8A84BF2009B181A685B6877
:103F7000050008920993FFF735F802000B001E9820
:103F80001F99FEF790FF089A099BFEF7BCFF069069
:103F90000791FFF763F88146FFF720F802000B0056
:103FA00006980799FEF77FFF0022984B069007912D
:103FB000FFF702F8002800D10DE101239C46E144FF
:103FC0004846FFF70BF802000B0008980999FEF726
:103FD000E3FF002802D0002399460135002E00D1CE
:103FE000D9E006954D46B94614E006AA9446172333
:103FF0000A216344280001341F19FEF70DFD3031FA
:10400000397028000A21013EFEF706FD092D00D86F
:1040100017E10500202CE8D14F46069D20240CAE68
:1040200006AA17239446634499465B46B346069313
:104030000FE04B4628000A210134E618FEF7C4FCC5
:104040003031280031700A21FEF7BEFC051E00D178
:10405000E4E0202CEDD1069B5E469B460323229A8A
:104060001340012B18D1219B002B15D00B9B002B4B
:1040700000D1FDE0219B013B2193202B0CD9302363
:10408000219A07E0172006A9013409180B5594421C
:1040900000D3CCE0202CF5D1229B01940393219BEB
:1040A0000096029322E0229B52460493219B390002
:1040B000039358461E9B1F9C02960093019443460F
:1040C00000F04AF90400200015B0F0BCBB46B2462F
:1040D000A946A046F0BD229B5B070FD403224C4BA0
:1040E00022990192039121990093029143465246ED
:1040F00039005846FFF790FD0400E4E70422454BE1
:10410000EEE71E9A1F9B00200021FEF7CCFE012344
:104110001E901F910B9311E7229B54469B0711D1D0
:10412000219B042B0ED9219B55469C465E46043CA0
:1041300064442A004346013539002020B047A54297
:10414000F7D1B346344D26002B1F99465B46A34654
:104150001C003200E87843463900013DA047013693
:104160004D45F6D123005C469B46229B04349B07B9
:10417000A9D55346219AE31A9A42A4D95E4615005E
:104180002200434639002020B04753460134E31A49
:104190009D42F5D897E72800FEF724FF02000B00A8
:1041A0001E981F99FEF77FFE0022184B069007917C
:1041B000FEF7ECFE0CAE002800D031E70698079918
:1041C0000022124BFEF7F8FE002800D028E701235A
:1041D00001359D4324E70022069807990B4BFEF713
:1041E000D5FE002800D0F9E64B46002B5CD1012318
:1041F0009C46E144F2E6C046FFFFEFFFFFFFEF7F82
:1042000065CDCD4165CDCDC1D86B00100000E03F3C
:10421000106400100864001018640010069B5E46CD
:104220009B460323229A1340012B00D181E0202CCE
:1042300000D131E70B9B002B27D02D2333550134C0
:104240002AE74F46069D202C00D1E7E6302233199D
:1042500007E0172006A9013409180A55202C00D1BF
:10426000DCE6A342F5D12E220CAE0134F254D7E69F
:104270000C23229A134257D0219B013B2193A34246
:1042800000D9FCE6202C00D106E7229B5B0703D572
:104290002B2333550134FFE6229B1B0700D4FBE69A
:1042A000202333550134F7E6DB0700D496E69EE77A
:1042B000229B55469B0711D1219B032B0ED9219B95
:1042C00054469C465E46033D654422004346013405
:1042D00039002020B047AC42F7D1B346B9465F461B
:1042E0001C4EEC1C2A00B078434649460135B847BD
:1042F000013EAC42F6D1229BBB464F469B0700D401
:10430000E1E65346219AE31A9A4200D8DBE65E467C
:1043100015002200434639002020B047534601349F
:10432000E31AAB42F5D3CEE6219BA34200D9A6E621
:10433000B2E6219B002B00D179E70B9B002B97D095
:10434000219B013B21939C4200D298E6202C00D077
:1043500073E7A1E614640010F0B5DE4657464E46FA
:104360004546E0B599B081468B4692469846229ADA
:10437000239B10001900FEF724FE002800D0CAE09D
:10438000229823990122824B5242FEF715FE002803
:1043900000D0C0E02298239901227E4B5242FEF7C2
:1043A000F5FD002800D0B6E02298239900220023D2
:1043B000FEF7ECFD002800D0C9E1229B239C089366
:1043C0000994089809998023269ADB001A400D92D7
:1043D0008022269C1201144022000B94269C070088
:1043E0000E001C4200D0ADE00B00034300D0D5E02E
:1043F000002A00D00AE2220006332493022313404D
:104400000C930223134200D002E2259B042B00D21E
:104410000FE2043B0B93002304250A930022229809
:1044200023990023FEF7B2FD002800D003E25A4B87
:10443000269A134004930B9B0393249B0293089B9F
:10444000099C009301945946434652464846FFF75B
:104450002FFD02002020269B1F27034059424B417D
:104460005B421840531C0893594643464530C847A1
:104470000A9AD317D4185C40D30F0A936B1E0B9380
:1044800008AB9C460025674401E0202D0FD020009A
:104490000A21FEF7C1FA01357E1930313170200052
:1044A0000A21FEF7B9FA26000400092EEDD80523EB
:1044B00006930B9B59460593002304930A330393F9
:1044C0000A9B4846029310AB0093089A4346019515
:1044D000FFF7F8FB0C9B002B2DD05346C41A259BED
:1044E000A34228D94D465F4681461E0053463900F7
:1044F0001A19202043460134A847A642F6D853464D
:1045000048462599C21A01320023914200D386E120
:10451000013018180FE0269B0493259B0393249BDE
:104520000293229B239C0093019443465246594692
:104530004846FFF7BDFC19B0F0BCBB46B246A946E1
:10454000A046F0BD01432BD10B9B2200002B00D1D4
:1045500054E700230A93249B0A9A0024934200DD27
:1045600085E12298239900220023FEF70FFD002801
:1045700000D035E1269B084A02941A408023DB00D4
:1045800013430493259B0393089B099CCBE7C046E8
:10459000FFFFEF7FFFFFEFFFFFF7FFFF06232493EF
:1045A000B44B70009C46400D6044FEF71BFDB24AC0
:1045B000B24BFEF7A8FCB24AB24BFEF77DFC3603C5
:1045C000B14B360B334304000D00380019000022B4
:1045D000AE4BFEF768FCAE4AAE4BFEF794FC020011
:1045E0000B0020002900FEF767FCFEF713FD0A9080
:1045F000FEF7F8FCA84AA94B04000D00FEF783FC67
:104600000022A74BFEF758FCFEF704FDA54A060062
:10461000A54B20002900FEF776FC040030000D00B9
:104620000C96FEF7DFFCA14AA14BFEF76CFC0200E2
:104630000B0020002900FEF736FC02000B000600EC
:104640000F00FEF760FC320004000D003B0030005C
:104650003900FEF731FC00220E900F91954B20009F
:104660002900FEF732FC0022934BFEF725FC0200E6
:104670000B0020002900FEF728FC00228F4BFEF7DC
:104680001BFC02000B0020002900FEF71EFC0D00A1
:104690008021040032003B000020C905FEF703FC26
:1046A00002000B0020002900FEF706FC02000B00B0
:1046B0000E980F99FEF709FC0022734BFEF7FCFBE6
:1046C0007F4B0C9C9C46644400222305FEF71BFC98
:1046D00006000F0002000B0008980999FEF756FC2F
:1046E00000280AD00A9B3000013B39000A930022BF
:1046F000714BFEF7EAFB06000F000A9A33006332A3
:104700003900C62A12D802222698042510400B9A96
:104710000C90002A25D1259B042B05D9002800D018
:10472000A1E0259B043B0B93042541E0022226983F
:1047300010400B9A0C90002A12D1259B052B76D99C
:10474000002872D1259B0525053B0B9334E0802280
:1047500012069446229B0893239B6344099330E6F8
:1047600005250B4300D1F6E608980999554A564BA2
:10477000FEF71AFC002808D0089809990022534B2C
:10478000FEF704FC002800D0E5E6249B002B1CD09B
:104790000D9B002B19D0249B013B2493259BAB42FE
:1047A00004D90C9B002B5AD002230C9300230B93AB
:1047B0000A9B002B00D131E60898099932003B0092
:1047C000FEF783FB0890099128E6259BAB42EDD9C3
:1047D0000C9B002B43D000230B9302330C93E7E791
:1047E0008020269B3A4A00061A4080238446029481
:1047F000089C099D2900DB0013430493259B614419
:10480000220003930B00009201938EE60524A8E694
:1048100000230B930A93023304250C93FEE55346C1
:104820008C46013B63441B1A72E602230C93052558
:10483000C2E70423EDE58020089E099F00063900A9
:104840008446269A224B6144134004930B9B32000A
:104850000393249B02930B0000920193F3E5259BA5
:104860005B1B0B93A4E7022304250C93A0E79C1A7F
:10487000013C76E601FCFFFFFB799F501344D33FD8
:10488000B3C8608B288AC63F0000F03F0000F83FA5
:1048900061436F63A787D23F71A379094F930A40A1
:1048A0000000E03F1655B5BBB16B0240EF39FAFE90
:1048B000422EE63F00002C4000002440000018403B
:1048C000FF0300002D431CEBE2361A3F80842E418B
:1048D000FFF7FFFFF0B5DE4657464E464546E0B5CA
:1048E000A5B01E002E9B92460C93CD4ACD4B804620
:1048F0008B461A60002900D1EAE1002330789946FE
:10490000002800D1ECE1C84B4C460B93C74B454601
:1049100057460E930AE0631C984622003B00594616
:10492000A84744463078002800D187E00136252882
:10493000F1D108239A46043B9946023B9846013B35
:1049400000229C460D943078711C0300203BDBB2A2
:10495000102B03D80B9C9B00E3589F460300303B71
:1049600089460D9C092B3AD9002398462A2800D164
:10497000C1E000239A462E284BD00300683BDBB2EF
:10498000122B1ED80E999B00CB589F4663460E00F3
:104990001A43D8E743460E001A43D4E74B460E00AD
:1049A0001A43D0E710230E001A43CCE753460E00FB
:1049B0001A43C8E780235B001A43FF3B9C4670788C
:1049C000E1444E4667284FD82428A4D90300253B4C
:1049D000DBB2422B9FD896499B00CB589F460023C1
:1049E00094461E0000E00131B3009B195B001E18C5
:1049F0000878303E0300303B092BF4D9012362468E
:104A000089469C460023B0469A460E00E1442E2873
:104A1000B3D13021802049428C46C00002437078D7
:104A20004B4684446146092900D86CE12A2800D10C
:104A30007AE101239C464E46E1449EE7A146A84602
:104A4000BA46CA4503D801235B42534499465346AC
:104A50004A4659460020C047200025B0F0BCBB465E
:104A6000B246A946A046F0BD0300693BDBB20D93F8
:104A70000F2B00D94FE7012199408C466D4989469B
:104A800061464B4619400F91634649460B4200D0A0
:104A900028E10D9B0A2B3AD0072B00D03BE70C9B5B
:104AA000190008C98846002B00D14BE121200243A0
:104AB000914614A98C461F220F2162448C46514610
:104AC0000D950C91A24615000F9902E020290CD0FB
:104AD000130064461C4020003730092C00D80738EA
:104AE000013168541A090F2BF0D80C9B54460D9DC8
:104AF0009A460F9133E10C9B02CB8846002947DB95
:104B00000C9301239C4670784E46E14431E70C9BA0
:104B100002CB14935346002B00D138E19C46087811
:104B20000B000C908C44002801D100F098FC8946C1
:104B30006146944603E05A780133002A01D08B4243
:104B4000F9D1494662465B1A0C900F93530500D584
:104B500020E10223180010400D90134200D1CBE356
:104B60000D930B1BB1469A465E460C9822003B0003
:104B70003100A84753460134185D0028F6D1B346EA
:104B80004E460D9B002B00D0C7E1149B0C93C9E649
:104B90000C9301239C46283849420243884670788A
:104BA0004E46E144E5E670786C2800D17FE1802331
:104BB0005B001A43FF3B9C46E14402E780239B00D5
:104BC0001A4301239C467078E144FAE6707868281D
:104BD00000D173E180231A437F3B9C46E144F0E619
:104BE000672800D103E1472800D15AE1452800D1C8
:104BF0005AE10492072142460C9B03920733524626
:104C00008B43190002920CC92800009201930C9169
:104C100022003B005946FFF79FFB040082E6C04696
:104C2000D5480010CC0B00203C6A0010806A0010B0
:104C3000CC6A001041900000462800D1DBE00492CD
:104C4000072142460C9B0392073352468B431900BF
:104C500002920CC92800009201930C9122003B00A3
:104C60005946FFF725F904005CE6631C98462200CC
:104C70003B0059462520A847444653E60C9B043385
:104C80000D93631C9946920700D422E10C9B2200ED
:104C9000187859463B00A84743464444012B00D8A6
:104CA00085E23300B8462E005F4625004C46994603
:104CB00022004346013439002020B047AC42F7D1EE
:104CC0002C00BB46350047464E460D9B0C9329E60B
:104CD000DB4B3078984600239946002800D012E636
:104CE0000024AEE66F2800D188E000D80BE3102343
:104CF000782800D1CFE09A430A239C4600230F93E3
:104D00000A330D9380E05646B100891949000133FA
:104D10000E181878303E010030390929F4D9B2460E
:104D20001E000133994628E60C9B023602CB8A46C8
:104D3000C9435046C917084082460C933078731C0B
:104D400099461AE610231000984311331843814600
:104D500080201300C0000340024200D1A9E64B4668
:104D600006930823059353460493102303930023CB
:104D700002930F9B220001931CAB009359463B000A
:104D80002800FEF79FFF434604000C93CAE5012369
:104D90005B42C3E60F9B534501D953460F93022351
:104DA000180010400D90134200D1B7E10D93D14689
:104DB0000B1B9A463300A1442E0022004D460C984E
:104DC000B9465F469B4608E04B463900541CB04745
:104DD0005346185D002877D022009542F4D15B46F7
:104DE000BB464F46A94635004C461E00C9E6802307
:104DF0001B011A43FDE620231A4320E708239C46A3
:104E000000230F9308330D9380231100DB0019401A
:104E10001A4200D116E10D239A43100080230200AC
:104E20009B001A401492184200D0C2E18023020075
:104E30005B001A4091460C9A04320F92184200D03F
:104E4000B7E2430600D59FE1030600D419E30C9BAB
:104E50001B880993002B00D0FCE1103398430029F4
:104E600000D1F7E100239946434605935346049346
:104E70000D9B069003930023D2E0582808D06228A7
:104E800067D102239C4600230F9302330D93BBE7A7
:104E900020231A43103B9C4600230F9310330D939D
:104EA000B2E780231B011A4320231A43A1E6C02343
:104EB0009B001A43F31C9946B07882E5C0231A433D
:104EC000F31C9946B0787CE535005E46BB464F46FC
:104ED00057E64346012B00D863E1631E43449A46DC
:104EE0003300B9462E005F4655469B46A246220037
:104EF0004B46013439002020B047AC42F7D1350091
:104F00005E46BB464F46A14654460C9B4A4618781F
:104F100059463B004444A847D7E6A1460F9B984515
:104F200000D832E64444E41A3300B8462E005F4607
:104F300025004C4699462200434601343900202082
:104F4000B047AC42F7D12C00BB46350047464E4631
:104F50001BE680231000DB0018401A4200D10FE14D
:104F6000112118008A430D920D9A802311009B0095
:104F700019408C461A4269D1802311005B00194008
:104F800089460C9904310F911A4200D0CAE11300EE
:104F90005B0600D5F0E013001B0600D459E20C9B21
:104FA00000229B5ED9175A184A4092B2D90F0C9131
:104FB000002B00D1F9E1100014AA944642461F23A9
:104FC000149252466344A84616944D460400B946CE
:104FD000B2461F00159201E0202D0FD020000A21BB
:104FE000FDF71AFD01357E193031317020000A219C
:104FF000FDF712FD26000400092EEDD8149B4F4644
:10500000A94645469846159B56469A46169C0D9BC2
:10501000069343460593534604930A2303930C9B3C
:1050200002934B4601931CAB2200009359463B0070
:105030002800FEF747FE0F9B04000C9372E4C04665
:10504000153C00100C239A431000E7E607220C9B46
:1050500007339343013294469C4462460C920CCB36
:10506000D90F0F911100194300D191E0D917139175
:105070001291514010911399594011911098119922
:10508000129A139B801A99411090119114AA00232F
:10509000944642469946149252461F336344A846AA
:1050A000B24616944E46109C119DB94615921F00AB
:1050B00001E0202E10D0200029000A220023FDF755
:1050C000E9FC013630322B00BA550D0022000400F5
:1050D000002BEED1092AECD8149B1094119545466B
:1050E0009846159B4F46B14656469A46169C0D9BD0
:1050F000069343460593534604930A2303930F9B59
:1051000002934B4601931CAB2200009359463B008F
:105110002800FEF7D7FD0400FFF704FC0F9B98451D
:1051200000D8C1E18023DB000D9343460F9A1B1981
:105130009B1A994633002E004D46B9465F469B4662
:105140000C9122004B46013439002020B047AC427C
:10515000F7D143460C9901330F930B7835000C932C
:105160005E46BB464F46002B00D10EE50D9B002B43
:1051700000D1F6E4002319E60C9B1B781A0015E712
:1051800010239A430D92EFE60C9B1B78099361E67E
:10519000002399460028AAD10022002310921193DF
:1051A00074E70C9B2200187859463B00A8474C46F0
:1051B0008BE50C9AFA3BFF3B07329A430133994641
:1051C00091444B460C931368526815921A4306D1CA
:1051D0001032904300220992002900D081E0612220
:1051E000810600D54122D2B20A9214AA91460A9AA7
:1051F00000210A3A149242461792524618925A4691
:105200000991B3461F311E000F9B4944BA461994B9
:105210001A950024674698468946159D16901B925C
:105220000AE03032D2B24B4601341A55A8454AD072
:10523000202C4AD006000D003A000023300029003F
:10524000FDF728FCD2B2092AEBD9149B9C46624494
:10525000D2B2E8E76123820600D54123DBB20A3BE4
:105260000C93434614A91F228C461593534662445F
:10527000A046B2464C461797A9461700099D0D9EB9
:105280001490169308E03033DBB201343B55B5423D
:105290000ED3202C0CD0050031002800FDF7BCFBFC
:1052A000CBB20929EFD90C9A94466344DBB2ECE700
:1052B000159B4D46A14644469846169B5646149863
:1052C0009A46179FD0E5B742B2D9179B57469846E2
:1052D000189B5E469A461B9B09949B461698199C00
:1052E0001A9D43460593534604930D9B06900393E2
:1052F00000230293099B05E70F9B984500D914E70B
:1053000001330F932DE41023110099430D91692867
:1053100000D0BAE080231000DB0018401A4200D110
:1053200022E61DE60C9B1B68DA0F1100002B00D152
:105330008CE0DA179818504014AA914642461F2371
:10534000149252464B44A046A9461697040065465F
:10535000B2461F000C91159201E0202D0FD02000C5
:105360000A21FDF759FB01357E19303131702000DB
:105370000A21FDF751FB26000400092EEDD8149BED
:10538000444698460C9BAC461900159B56464D4624
:105390009A46169F0D9B02910693434605935346EA
:1053A00004930A23039363463CE6002800D02EE6CC
:1053B00002E60C9B1B689946002B03D110339843DF
:1053C000002938D16123820600D54123DBB20A3B94
:1053D0000C9343461693534614A91F228C461793E9
:1053E0002B006244A0464D46B246189799461700D6
:1053F000149C0D9E159008E03033DBB201343B5510
:10540000B5420ED3202C0CD0050031002800FDF74A
:1054100003FBCBB20929EFD90C9A94466344DBB263
:10542000ECE7169B149444469846179B56464D4607
:105430009A461598189F43460593534604930D9B2F
:105440000690039300230293149BEBE50028A1D15F
:1054500072E70C9B1B68D9175A184A40A6E58023AF
:105460001000DB0018409C460F901A420FD002201B
:10547000030013400F93104219D00023A1460F934D
:105480004CE50C9B1B680993E4E40A0034E4022316
:10549000180010400D90134200D03EE54346002B0B
:1054A00000D042E6FFF771FB01330F937FE46346C0
:1054B0000D93F3E70CB430B585B008AC08CC064DBD
:1054C0000A000094010028000394FFF703FA05B0D6
:1054D00030BC08BC02B018470D3C001010B50C00E1
:1054E00084B00394012402A902900093034813009E
:1054F0006242FFF7EFF904B010BDC046A13E0010B4
:1055000010B5094A0300146884B0002C08D00122A9
:1055100000910648524203A9A047012004B010BDE3
:1055200000F09AF90020F9E7CC0B0020913E001022
:1055300000BEFDE710B5FFF7FBFFC04670B5FDF7F5
:105540006BF9074D074EB54209D20024013E761B88
:10555000B60808CD984723000134B342F9D170BD95
:105560001C63001024630010030010B50800110034
:105570001B68984710BDC046F0B5C64600B5437DD0
:1055800007000C001600002B46D0002A17DD0B7810
:105590000A2B24D000239846012E13D00125290080
:1055A000635C01350A2B26D0B542F8D1464509DCAB
:1055B000A419013C23780D3B5A4253413B7580BCF2
:1055C000B846F0BD4346E018A419F11A013C3B6807
:1055D000984723780D3B5A4253413B75EFE7037DD3
:1055E000002BD7D102210F483B689847012EDFD00E
:1055F00001239846D2E7631E5B5C0D2BD4D088450F
:1056000004DA4346C91AE0183B6898470221054866
:105610003B68A8469847C7E70368110020009847F1
:10562000CDE7C046286C0010F0B5C6460B680600F2
:105630000C0000B5802B06D05A1C2260E41826719D
:1056400080BCB846F0BD0F4B1D68002D16D00B1D59
:1056500098460D4F02E02D69002D0FD02B68002BCE
:10566000F9D03B68002B01D0AB42F4D12800414671
:105670002268FFF781FF2D69002DEFD10122002361
:10568000DBE7C046A40B0020A80B0020F0B5454680
:10569000DE464E465746E0B583B091461C00804634
:1056A0000D00FCF73DFE0023304A12184B41002B41
:1056B00002DA01222E4B52422E4908008A4600F09F
:1056C00007FE07006B1C03D1404600F0B1FD05004A
:1056D000002C27D0284E294B1C68002C18D04B4694
:1056E000002B21D1264B994602E02469002C0FD0D3
:1056F0002368002BF9D04B461B68002B01D09C423D
:10570000F3D120002A004146B0472469002CEFD194
:10571000002F26D1280003B0F0BCBB46B246A946F4
:10572000A046F0BD174ED6E7154B99460A239B4677
:1057300002E02469002CEBD02368002BF9D04B4603
:105740001B68002B01D0A342F3D12A004146200060
:10575000B0476B465A462000DA71D91D0122B04786
:10576000E7E7504600F094FDD4E7C04640420F0002
:10577000FFFFFF7F1807002079550010A40B0020C1
:10578000A80B0020695500100A4A1368002B05D1A8
:105790000CE01A001B691032002B07D08342F8D1AD
:1057A000002902D118691060196170470029FCD0E6
:1057B0001060FAE7A40B002010B500F0ABF901204F
:1057C00010BDC046F0B5CE46474680B583B06B46A7
:1057D0000600DD1D2870FCF7A3FD0023194A1218EE
:1057E0004B41002B02DA0122174B524217490800A5
:1057F000884600F06DFD164B81461C68002C14D0C5
:10580000144F02E02469002C0FD02368002BF9D03C
:105810003B68002B01D09C42F4D1200001222900DA
:10582000FFF7AAFE2469002CEFD14B46002B05D1CF
:10583000300003B0C0BCB946B046F0BD404600F0F1
:1058400027FDF5E740420F00FFFFFF7F180700200C
:10585000A40B0020A80B002070B5040000F0E8FCA9
:1058600001230100050001222000FFF70FFF084B74
:105870001C68002C06D06368002B05D0984724696B
:10588000002CF8D1280070BD2469002CF3D1F9E771
:10589000A40B0020F0B5CE46474680B5A3B0040067
:1058A0000D00FCF73DFD0023274A12184B41002B49
:1058B00002DA0122254B5242254E300000F008FD4D
:1058C00000232200019307002B00224801A9FFF7C3
:1058D00005FE214B804699461C68019B002B1AD07F
:1058E000002C2FD01D4D02E02469002C0FD023681E
:1058F000002BF9D02B68002B01D0A342F4D120005B
:10590000019A02A9FFF738FE2469002CEFD14B461B
:105910001C6800230193002C06D06368002B0BD079
:1059200098472469002CF8D1002F07D1404623B0B6
:10593000C0BCB946B046F0BD2469ECE7300000F0C9
:10594000A7FCF3E70194EFE740420F00FFFFFF7F62
:105950001807002029560010A40B0020A80B0020D7
:105960000FB400B583B004A901C90191FFF792FFFC
:1059700003B008BC04B01847F0B5002915DD0E4B84
:105980000D271A680D4B0E4CD3185D426B4145181C
:1059900020215B001E5F0478A64207D0936919425C
:1059A000FCD101301460A842F5D1F0BD93691942D1
:1059B000FCD11760F2E7C046800D00200080FCBFDC
:1059C0007C0D0020204B70B504000D1E1E682ADDE2
:1059D000002010211D4B013C1A689369194214D113
:1059E000013093691942FCD1136823548542F4D1E4
:1059F000002E08D050239363516B183B0B40144981
:105A00008C4662441360280070BD002E08D05023DD
:105A10009363516B183B0B400D498C4662441360F5
:105A20000028F1D10CE0002E0AD05022074B1B6851
:105A30009A63596B183A0A4005498C4663441A60C8
:105A400003204042E0E7C046700B0020800D00209C
:105A500034100000064B10B51B68002B06D0002147
:105A6000044A12689163044A1068984710BDC04602
:105A7000700B0020800D0020740B00200822034BC7
:105A800019688B691A42FCD17047C046800D00200E
:105A9000F8B51A4F1A4B3A680500D31858424341DB
:105AA000184E14331C003368002D02D0002B0FD089
:105AB000F8BD002BFCD0002120009563FBF750FFC0
:105AC00020001149FBF788FF104B35601D60EFE7A0
:105AD0000E4B200019600C493560FBF753FF012184
